:020000040800F2
:1000000000800120D1370008F90E0008FF0E00081B
:10001000050F00080B0F0008110F0008000000007A
:10002000000000000000000000000000170F0008A2
:10003000250F000800000000330F0008410F0008E2
:10004000213800082138000821380008213800082C
:10005000213800082138000821380008213800081C
:10006000213800082138000821380008213800080C
:1000700021380008213800082138000821380008FC
:10008000213800082138000821380008000000004D
:1000900000000000000000000000000021380008FF
:1000A00021380008213800082138000821380008CC
:1000B00021380008213800082138000821380008BC
:1000C00021380008213800082138000821380008AC
:1000D00021380008213800082138000800000000FD
:1000E00021380008213800082138000800000000ED
:1000F000000000000000000000000000213800089F
:1001000000000000213800082138000821380008CC
:1001100000000000000000000000000000000000DF
:10012000213800082138000821380008213800084B
:10013000213800080000000000000000000000005E
:10014000000000000000000000000000213800084E
:10015000213800082138000821380008213800081B
:1001600021380008213800080000000000000000CD
:10017000000000000000000000000000000000007F
:10018000000000002138000800000000000000000E
:04019000213800080A
:1001A00010B5054C237833B9044B13B10448AFF3B1
:1001B00000800123237010BD80000020000000009B
:1001C000F04B000808B5034B1BB103490348AFF3DC
:1001D000008008BD0000000084000020F04B0008F3
:1001E00081F0004102E000BF83F0004330B54FEAE8
:1001F00041044FEA430594EA050F08BF90EA020F55
:100200001FBF54EA000C55EA020C7FEA645C7FEAE7
:10021000655C00F0E2804FEA5454D4EB5555B8BF0A
:100220006D420CDD2C4480EA020281EA030382EA7B
:10023000000083EA010180EA020281EA0303362D0D
:1002400088BF30BD11F0004F4FEA01314FF4801CE0
:100250004CEA113102D0404261EB410113F0004FF2
:100260004FEA03334CEA133302D0524263EB4303A9
:1002700094EA050F00F0A780A4F10104D5F1200E47
:100280000DDB02FA0EFC22FA05F2801841F10001A2
:1002900003FA0EF2801843FA05F359410EE0A5F176
:1002A00020050EF1200E012A03FA0EFC28BF4CF0A7
:1002B000020C43FA05F3C01851EBE37101F000455D
:1002C00007D54FF0000EDCF1000C7EEB00006EEB6A
:1002D0000101B1F5801F1BD3B1F5001F0CD34908F4
:1002E0005FEA30004FEA3C0C04F101044FEA44524B
:1002F00012F5800F80F09A80BCF1004F08BF5FEAD2
:10030000500C50F1000041EB045141EA050130BDB1
:100310005FEA4C0C404141EB0101013C28BFB1F5C3
:10032000801FE9D291F0000F04BF01460020B1FA0E
:1003300081F308BF2033A3F10B03B3F120020CDAE1
:100340000C3208DD02F1140CC2F10C0201FA0CF0BF
:1003500021FA02F10CE002F11402D8BFC2F1200C24
:1003600001FA02F120FA0CFCDCBF41EA0C019040DA
:10037000E41AA2BF01EB0451294330BD6FEA040423
:100380001F3C1CDA0C340EDC04F11404C4F120020E
:1003900020FA04F001FA02F340EA030021FA04F320
:1003A00045EA030130BDC4F10C04C4F1200220FA77
:1003B00002F001FA04F340EA0300294630BD21FAB5
:1003C00004F0294630BD94F0000F83F4801306BF7B
:1003D00081F480110134013D4EE77FEA645C18BF6F
:1003E0007FEA655C29D094EA050F08BF90EA020F06
:1003F00005D054EA000C04BF1946104630BD91EAFE
:10040000030F1EBF0021002030BD5FEA545C05D100
:100410004000494128BF41F0004130BD14F580043F
:100420003CBF01F5801130BD01F0004545F0FE41B3
:1004300041F470014FF0000030BD7FEA645C1ABFE8
:10044000194610467FEA655C1CBF0B46024650EA1F
:10045000013406BF52EA033591EA030F41F400214B
:1004600030BD00BF90F0000F04BF0021704730B5D1
:100470004FF4806404F132044FF000054FF00001A6
:1004800050E700BF90F0000F04BF0021704730B567
:100490004FF4806404F1320410F0004548BF40423C
:1004A0004FF000013EE700BF42004FEAE2014FEA91
:1004B00031014FEA02701FBF12F07F4393F07F4F6C
:1004C00081F06051704732F07F4208BF704793F06F
:1004D0007F4F04BF41F40021704730B54FF4607482
:1004E00001F0004521F000411CE700BF50EA010285
:1004F00008BF704730B54FF000050AE050EA01022E
:1005000008BF704730B511F0004502D5404261EB9D
:1005100041014FF4806404F132045FEA915C3FF4DE
:10052000D8AE4FF003025FEADC0C18BF03325FEA7B
:10053000DC0C18BF033202EBDC02C2F1200300FA2C
:1005400003FC20FA02F001FA03FE40EA0E0021FA51
:1005500002F11444BDE600BF4FF0FF3C06E000BFCF
:100560004FF0010C02E000BF4FF0010C4DF804CD3C
:100570004FEA410C7FEA6C5C4FEA430C18BF7FEAFC
:100580006C5C1BD001B050EA410C0CBF52EA430C2A
:1005900091EA030F02BF90EA020F0020704710F1AA
:1005A000000F91EA030F58BF994208BF90422CBF39
:1005B000D8176FEAE37040F0010070474FEA410C32
:1005C0007FEA6C5C02D150EA013C07D14FEA430C50
:1005D0007FEA6C5CD6D152EA033CD3D05DF8040BC1
:1005E000704700BF8446104662468C4619466346F3
:1005F00000E000BF01B5FFF7B7FF002848BF10F1CA
:10060000000F01BD4DF808EDFFF7F4FF0CBF01200E
:1006100000205DF808FB00BF4DF808EDFFF7EAFF8A
:1006200034BF012000205DF808FB00BF4DF808ED45
:10063000FFF7E0FF94BF012000205DF808FB00BF3A
:100640004DF808EDFFF7CEFF94BF012000205DF8C4
:1006500008FB00BF4DF808EDFFF7C4FF34BF0120D1
:1006600000205DF808FB00BF4FEA410212F50012BE
:1006700015D211D56FF47873B3EB625212D94FEAE9
:10068000C12343F0004343EA505311F0004F23FAD3
:1006900002F018BF404270474FF00000704750EA28
:1006A000013005D111F0004008BF6FF000407047E5
:1006B0004FF00000704700BF4FEA4102B2F1E04343
:1006C00024BFB3F5001CDCF1FE5C0DD901F0004C39
:1006D0004FEAC0024CEA5070B2F1004F40EB830089
:1006E00008BF20F00100704711F0804F21D113F1B5
:1006F0003872BCBF01F00040704741F480114FEAEE
:100700005252C2F11802C2F1200C10FA0CF320FA76
:1007100002F018BF40F001004FEAC1234FEAD32393
:1007200003FA0CFC40EA0C0023FA02F34FEA4303FD
:10073000CCE77FEA625307D150EA01331EBF4FF086
:10074000FE4040F44000704701F0004040F0FE40A1
:1007500040F40000704700BF53B94AB9002908BFF0
:1007600000281CBF4FF0FF314FF0FF3000F074B98C
:10077000ADF1080C6DE904CE00F006F8DDF804E0F8
:10078000DDE9022304B070472DE9F047089D0446D7
:100790008E46002B4DD18A42944669D9B2FA82F234
:1007A00052B101FA02F3C2F1200120FA01F10CFA70
:1007B00002FC41EA030E94404FEA1C48210CBEFBA8
:1007C000F8F61FFA8CF708FB16E341EA034306FB31
:1007D00007F199420AD91CEB030306F1FF3080F0C0
:1007E0001F81994240F21C81023E63445B1AA4B20D
:1007F000B3FBF8F008FB103344EA034400FB07F7AF
:10080000A7420AD91CEB040400F1FF3380F00A81EF
:10081000A74240F207816444023840EA0640E41BE4
:1008200000261DB1D4400023C5E900433146BDE890
:10083000F0878B4209D9002D00F0EF800026C5E932
:10084000000130463146BDE8F087B3FA83F6002E4A
:100850004AD18B4202D3824200F2F980841A61EBC2
:10086000030301209E46002DE0D0C5E9004EDDE7E0
:1008700002B9FFDEB2FA82F2002A40F09280A1EBC8
:100880000C014FEA1C471FFA8CFE0126200CB1FB1D
:10089000F7F307FB131140EA01410EFB03F0884216
:1008A00008D91CEB010103F1FF3802D2884200F2A3
:1008B000CB804346091AA4B2B1FBF7F007FB101135
:1008C00044EA01440EFB00FEA64508D91CEB0404D3
:1008D00000F1FF3102D2A64500F2BB800846A4EB2E
:1008E0000E0440EA03409CE7C6F12007B34022FA19
:1008F00007FC4CEA030C20FA07F401FA06F31C4348
:10090000F9404FEA1C4900FA06F3B1FBF9F8200C54
:100910001FFA8CFE09FB181140EA014108FB0EF09A
:10092000884202FA06F20BD91CEB010108F1FF3AEA
:1009300080F08880884240F28580A8F102086144F6
:10094000091AA4B2B1FBF9F009FB101144EA014104
:1009500000FB0EFE8E4508D91CEB010100F1FF34AF
:100960006CD28E456AD90238614440EA0840A0FB47
:100970000294A1EB0E01A142C846A64656D353D01D
:100980005DB1B3EB080261EB0E0101FA07F722FA41
:1009900006F3F1401F43C5E9007100263146BDE86A
:1009A000F087C2F12003D8400CFA02FC21FA03F3CD
:1009B000914001434FEA1C471FFA8CFEB3FBF7F04E
:1009C00007FB10360B0C43EA064300FB0EF69E4273
:1009D00004FA02F408D91CEB030300F1FF382FD20C
:1009E0009E422DD9023863449B1B89B2B3FBF7F6B4
:1009F00007FB163341EA034106FB0EF38B4208D98D
:100A00001CEB010106F1FF3816D28B4214D9023ECD
:100A10006144C91A46EA004638E72E46284605E7EB
:100A20000646E3E61846F8E64B45A9D2B9EB0208BC
:100A300064EB0C0E0138A3E74646EAE7204694E74C
:100A40004046D1E7D0467BE7023B614432E730467F
:100A500009E76444023842E7704700BF0000000025
:100A600001F0FF01102A2BDB10F0070F08D010F85F
:100A7000013B013A8B422DD010F0070F42B3F6D163
:100A8000F0B441EA012141EA014122F007047FF07C
:100A900000070023F0E80256083C85EA010586EAD3
:100AA000010685FA47F5A3FA87F586FA47F6A5FA0F
:100AB00087F68EB9EED1F0BC01F0FF0102F007021B
:100AC00032B110F8013B013A83EA010313B1F8D1C6
:100AD0000020704701387047002D06BF35460338A7
:100AE000073815F0010F07D1013015F4807F02BFE0
:100AF000013015F4C03F0130F0BC0138704700BF31
:100B000070B50D4D0D4C641BA4100026A64209D1F2
:100B10000B4D0C4C04F06CF8641BA4100026A6428C
:100B200005D170BD55F8043B98470136EEE755F8FE
:100B3000043B98470136F2E7C45D0008C45D000835
:100B4000C45D0008C85D000802440346934200D11A
:100B5000704703F8011BF9E780B58AB000AF07F1D1
:100B6000140300221A605A609A60DA601A61002346
:100B70003B61584B1B6B574A43F080031363554B43
:100B80001B6B03F080033B613B690023FB60514B0F
:100B90001B6B504A43F0010313634E4B1B6B03F076
:100BA0000103FB60FB680023BB604A4B1B6B494A97
:100BB00043F002031363474B1B6B03F00203BB605C
:100BC000BB6800237B60434B1B6B424A43F004032A
:100BD0001363404B1B6B03F004037B607B680122B3
:100BE00020213D4800F0B6FD00224FF4DE513A4886
:100BF00000F0B0FD00224FF49251384800F0AAFDF9
:100C000000224FF4E071364800F0A4FD01224FF4B9
:100C10008071324800F09EFD4FF478737B610123B0
:100C2000BB610123FB6102233B6207F114031946F8
:100C3000294800F00BFC4FF480537B610123BB611A
:100C40000023FB6100233B6207F11403194623488C
:100C500000F0FCFBC0237B610123BB610123FB612E
:100C600002233B6207F1140319461D4800F0EEFB16
:100C70004FF480737B610123BB610023FB61002380
:100C80003B6207F114031946154800F0DFFB4FF4EF
:100C9000C0537B610123BB610023FB6100233B62E6
:100CA00007F1140319460C4800F0D0FB4FF45073C1
:100CB0007B610123BB610123FB6102233B6207F1DE
:100CC00014031946054800F0C1FB00BF2837BD4694
:100CD00080BD00BF00380240000002400004024016
:100CE000000802400000000080B500AF00F056FA96
:100CF00000F058F8FFF730FF00F0DEF902F0F4FBE7
:100D000002F012FC01F09AFD234921A3D3E900234C
:100D1000C1E90023204B08229A6001F031FE1F4BED
:100D200001221A6000F0A0FA03461D4A136000F089
:100D30009BFA02461A4B1B68D31A41F2883293423F
:100D400023D900F091FA0346154A1360134B1B6830
:100D5000022B13D0022BEADC002B02D0012B06D091
:100D600014E001F00DFE0D4B01221A600EE00A485E
:100D700001F05CFE094B02221A6007E0064801F010
:100D80001BFE064B00221A6000E000BFCFE700BF49
:100D900085EB51B81EA97440F0000020A00000208F
:100DA0009C00002080B594B000AF07F120033022F2
:100DB00000211846FFF7C8FE07F10C0300221A6055
:100DC0005A609A60DA601A610023BB60284B1B6C82
:100DD000274A43F080531364254B1B6C03F0805368
:100DE000BB60BB6800237B60224B1B6823F440433D
:100DF000204A43F4004313601E4B1B6803F4404336
:100E00007B607B6801233B624FF4A0237B6202235B
:100E1000BB634FF48003FB6304233B6448237B6480
:100E20000223BB640723FB6407F12003184600F08C
:100E3000ABFC0346002B01D000F030F80F23FB6021
:100E400002233B6100237B614FF48053BB6100238D
:100E5000FB6107F10C030221184600F00DFF034669
:100E6000002B01D000F01AF800BF5037BD4680BDFE
:100E7000003802400070004080B582B000AF78605A
:100E8000391D4FF6FF730122034801F062F97B68B8
:100E900018460837BD4680BDA800002080B400AFCA
:100EA00072B600BFFEE7000080B582B000AF00233D
:100EB0007B60104B5B6C0F4A43F4804353640D4BD3
:100EC0005B6C03F480437B607B6800233B60094BD1
:100ED0001B6C084A43F080531364064B1B6C03F0F1
:100EE00080533B603B68072000F07CFA00BF083766
:100EF000BD4680BD0038024080B400AFFEE780B43C
:100F000000AFFEE780B400AFFEE780B400AFFEE7BD
:100F100080B400AFFEE780B400AF00BFBD465DF80F
:100F2000047B704780B400AF00BFBD465DF8047B12
:100F3000704780B400AF00BFBD465DF8047B7047CA
:100F400080B500AF00F07CF900BF80BD80B586B0F1
:100F500000AFF860B9607A6000237B610AE0AFF30C
:100F600000800146BB685A1CBA60CAB21A707B691D
:100F700001337B617A697B689A42F0DB7B681846B3
:100F80001837BD4680BD80B586B000AFF860B96047
:100F90007A6000237B6109E0BB685A1CBA601B7849
:100FA0001846FFF769FF7B6901337B617A697B68CB
:100FB0009A42F1DB7B6818461837BD4680BD80B485
:100FC00083B000AF78604FF0FF3318460C37BD4652
:100FD0005DF8047B704780B483B000AF78603960FF
:100FE0003B684FF400525A60002318460C37BD4648
:100FF0005DF8047B704780B483B000AF7860012354
:1010000018460C37BD465DF8047B704780B485B048
:1010100000AFF860B9607A60002318461437BD4607
:101020005DF8047B7047000080B586B000AF786043
:10103000144A154BD31A7B617B693B61134B1B68C8
:10104000002B02D1114B124A1A60104B1A687B68B0
:1010500013443A699A4207D202F0E4FB03460C2299
:101060001A604FF0FF3309E0084B1B68FB60074B29
:101070001A687B681344054A1360FB6818461837E2
:10108000BD4680BD0080012000040000A4000020B7
:101090001811002080B400AF064BD3F88830054A01
:1010A00043F47003C2F8883000BFBD465DF8047B8E
:1010B000704700BF00ED00E080B500AF114B124A51
:1010C0001A60104B4FF4E1325A600E4B00229A60C6
:1010D0000C4B0022DA600B4B00221A61094B0C22E8
:1010E0005A61084B00229A61064B0022DA610548DA
:1010F00000F0E2FF0346002B01D0FFF7CFFE00BF58
:1011000080BD00BFA80000200044004080B58AB028
:1011100000AF786007F1140300221A605A609A60E9
:10112000DA601A617B681B68194A93422BD100234D
:101130003B61184B1B6C174A43F400331364154B87
:101140001B6C03F400333B613B690023FB60114BD4
:101150001B6B104A43F0010313630E4B1B6B03F030
:101160000103FB60FB680C237B610223BB6100234E
:10117000FB6103233B6207237B6207F114031946DB
:10118000054800F063F900BF2837BD4680BD00BFA9
:1011900000440040003802400000024080B500AF2B
:1011A0000E4B1B680D4A43F4007313600B4B1B6816
:1011B0000A4A43F480631360084B1B68074A43F4F0
:1011C00080731360032000F00DF9002000F008F890
:1011D000FFF76AFE0023184680BD00BF003C0240B6
:1011E00080B582B000AF7860124B1A68124B1B7842
:1011F00019464FF47A73B3FBF1F3B2FBF3F31846DD
:1012000000F017F90346002B01D001230EE07B68A4
:101210000F2B0AD8002279684FF0FF3000F0EDF86C
:10122000064A7B681360002300E001231846083754
:10123000BD4680BD640000206C00002068000020D6
:1012400080B400AF064B1B781A46064B1B6813444C
:10125000044A136000BFBD465DF8047B704700BFC1
:101260006C000020EC00002080B400AF034B1B6832
:101270001846BD465DF8047B704700BFEC000020B7
:1012800080B485B000AF78607B6803F00703FB6033
:101290000C4BDB68BB60BA684FF6FF031340BB60C2
:1012A000FB681A02BB68134343F0BF6343F4003387
:1012B000BB60044ABB68D36000BF1437BD465DF80D
:1012C000047B704700ED00E080B400AF044BDB68A6
:1012D0001B0A03F007031846BD465DF8047B704700
:1012E00000ED00E080B483B000AF03463960FB71CD
:1012F00097F90730002B0ADB3B68DAB20C4997F903
:1013000007301201D2B20B4483F800230AE03B6895
:10131000DAB20849FB7903F00F03043B1201D2B2A1
:101320000B441A7600BF0C37BD465DF8047B70474E
:1013300000E100E000ED00E080B489B000AFF860AB
:10134000B9607A60FB6803F00703FB61FB69C3F1D6
:101350000703042B28BF0423BB61FB690433062B5E
:1013600002D9FB69033B00E000237B614FF0FF32B1
:10137000BB6902FA03F3DA43BB681A407B699A40FF
:101380004FF0FF317B6901FA03F3D9437B680B40CF
:10139000134318462437BD465DF8047B70470000B0
:1013A00080B582B000AF78607B68013BB3F1807F8D
:1013B00001D301230FE00A4A7B68013B53600F21F0
:1013C0004FF0FF30FFF78EFF054B00229A60044B71
:1013D00007221A60002318460837BD4680BD00BFAB
:1013E00010E000E080B582B000AF78607868FFF769
:1013F00047FF00BF0837BD4680BD80B586B000AF4F
:101400000346B9607A60FB7300237B61FFF75CFFE2
:1014100078617A68B9687869FFF78EFF024697F9B4
:101420000F3011461846FFF75DFF00BF1837BD4665
:1014300080BD80B582B000AF78607868FFF7B0FFFC
:10144000034618460837BD4680BD000080B489B009
:1014500000AF7860396000237B6100233B6100238B
:10146000BB610023FB6159E10122FB6902FA03F32E
:101470007B613B681B687A6913403B613A697B6911
:101480009A4240F048813B685B6803F00303012BFC
:1014900005D03B685B6803F00303022B30D17B6807
:1014A0009B68BB61FB695B00032202FA03F3DB4329
:1014B000BA691340BB613B68DA68FB695B0002FAFA
:1014C00003F3BA691343BB617B68BA699A607B68AE
:1014D0005B68BB610122FB6902FA03F3DB43BA6973
:1014E0001340BB613B685B681B0903F00102FB69A9
:1014F00002FA03F3BA691343BB617B68BA695A60A5
:101500003B685B6803F00303032B17D07B68DB6841
:10151000BB61FB695B00032202FA03F3DB43BA6998
:101520001340BB613B689A68FB695B0002FA03F3F6
:10153000BA691343BB617B68BA69DA603B685B6870
:1015400003F00303022B23D1FB69DA087B6808321E
:1015500053F82230BB61FB6903F007039B000F22A5
:1015600002FA03F3DB43BA691340BB613B681A69B3
:10157000FB6903F007039B0002FA03F3BA69134304
:10158000BB61FB69DA087B680832B96943F822104D
:101590007B681B68BB61FB695B00032202FA03F3F3
:1015A000DB43BA691340BB613B685B6803F003022D
:1015B000FB695B0002FA03F3BA691343BB617B6802
:1015C000BA691A603B685B6803F44033002B00F093
:1015D000A2800023FB60574B5B6C564A43F4804368
:1015E0005364544B5B6C03F48043FB60FB68524ACA
:1015F000FB699B08023352F82330BB61FB6903F09F
:1016000003039B000F2202FA03F3DB43BA69134082
:10161000BB617B68494A934219D07B68484A934230
:1016200013D07B68474A93420DD07B68464A934269
:1016300007D07B68454A934201D1042308E0072381
:1016400006E0032304E0022302E0012300E000237C
:10165000FA6902F0030292009340BA691343BB6136
:101660003549FB699B080233BA6941F82320384B9E
:101670009B68BB613B69DB43BA691340BB613B6854
:101680005B6803F48013002B03D0BA693B691343F2
:10169000BB612F4ABB6993602D4BDB68BB613B6923
:1016A000DB43BA691340BB613B685B6803F400131A
:1016B000002B03D0BA693B691343BB61244ABB6961
:1016C000D360234B5B68BB613B69DB43BA69134062
:1016D000BB613B685B6803F40033002B03D0BA693D
:1016E0003B691343BB611A4ABB695360184B1B68C3
:1016F000BB613B69DB43BA691340BB613B685B6814
:1017000003F48033002B03D0BA693B691343BB61F8
:101710000F4ABB691360FB690133FB61FB690F2B47
:101720007FF6A2AE00BF00BF2437BD465DF8047B44
:10173000704700BF003802400038014000000240FE
:101740000004024000080240000C02400010024069
:10175000003C014080B483B000AF78600B467B80D2
:1017600013467B707B78002B03D07A887B689A6164
:1017700003E07B881A047B689A6100BF0C37BD4682
:101780005DF8047B7047000080B586B000AF7860DC
:101790007B68002B01D1012367E27B681B6803F0A3
:1017A0000103002B75D0884B9B6803F00C03042BBE
:1017B0000CD0854B9B6803F00C03082B12D1824B95
:1017C0005B6803F48003B3F5800F0BD17E4B1B687D
:1017D00003F40033002B5BD07B685B68002B57D190
:1017E000012342E27B685B68B3F5803F06D1764B0C
:1017F0001B68754A43F4803313601DE07B685B68A7
:10180000B3F5A02F0CD1704B1B686F4A43F48023B3
:1018100013606D4B1B686C4A43F4803313600BE01C
:10182000694B1B68684A23F480331360664B1B685E
:10183000654A23F4802313607B685B68002B13D018
:10184000FFF712FD386108E0FFF70EFD02463B6925
:10185000D31A642B01D9032307E25B4B1B6803F403
:101860000033002BF0D014E0FFF7FEFC386108E0F5
:10187000FFF7FAFC02463B69D31A642B01D9032314
:10188000F3E1514B1B6803F40033002BF0D100E06F
:1018900000BF7B681B6803F00203002B63D04A4B38
:1018A0009B6803F00C03002B0BD0474B9B6803F0A5
:1018B0000C03082B1CD1444B5B6803F48003002B02
:1018C00016D1414B1B6803F00203002B05D07B6847
:1018D000DB68012B01D00123C7E13B4B1B6823F0E0
:1018E000F8027B681B69DB00374913430B603AE061
:1018F0007B68DB68002B20D0344B01221A60FFF795
:10190000B3FC386108E0FFF7AFFC02463B69D31A2D
:10191000022B01D90323A8E12B4B1B6803F0020320
:10192000002BF0D0284B1B6823F0F8027B681B6962
:10193000DB00254913430B6015E0244B00221A609D
:10194000FFF792FC386108E0FFF78EFC02463B6926
:10195000D31A022B01D9032387E11B4B1B6803F029
:101960000203002BF0D17B681B6803F00803002BF7
:1019700036D07B685B69002B16D0154B01221A60AC
:10198000FFF772FC386108E0FFF76EFC02463B6926
:10199000D31A022B01D9032367E10B4B5B6F03F0D2
:1019A0000203002BF0D01BE0094B00221A60FFF766
:1019B0005BFC38610EE0FFF757FC02463B69D31A27
:1019C000022B07D9032350E10038024000004742B0
:1019D000800E4742884B5B6F03F00203002BEAD175
:1019E0007B681B6803F00403002B00F09780002342
:1019F000FB75814B1B6C03F08053002B0FD1002330
:101A0000BB607D4B1B6C7C4A43F0805313647A4B64
:101A10001B6C03F08053BB60BB680123FB75774BE5
:101A20001B6803F48073002B18D1744B1B68734A36
:101A300043F480731360FFF717FC386108E0FFF789
:101A400013FC02463B69D31A022B01D903230CE194
:101A50006A4B1B6803F48073002BF0D07B689B6893
:101A6000012B06D1644B1B6F634A43F001031367DC
:101A70001CE07B689B68052B0CD15F4B1B6F5E4A9B
:101A800043F0040313675C4B1B6F5B4A43F0010395
:101A900013670BE0584B1B6F574A23F00103136782
:101AA000554B1B6F544A23F0040313677B689B68F4
:101AB000002B15D0FFF7D8FB38610AE0FFF7D4FB05
:101AC00002463B69D31A41F28832934201D903237B
:101AD000CBE0494B1B6F03F00203002BEED014E068
:101AE000FFF7C2FB38610AE0FFF7BEFB02463B6925
:101AF000D31A41F28832934201D90323B5E03E4B19
:101B00001B6F03F00203002BEED1FB7D012B05D1EF
:101B1000394B1B6C384A23F0805313647B689B69F4
:101B2000002B00F0A180344B9B6803F00C03082BC2
:101B30005CD07B689B69022B41D1314B00221A603B
:101B4000FFF792FB386108E0FFF78EFB02463B6926
:101B5000D31A022B01D9032387E0274B1B6803F01C
:101B60000073002BF0D17B68DA697B681B6A1A432B
:101B70007B685B6A9B011A437B689B6A5B08013B3D
:101B80001B041A437B68DB6A1B061B4913434B602B
:101B90001B4B01221A60FFF767FB386108E0FFF773
:101BA00063FB02463B69D31A022B01D903235CE095
:101BB000114B1B6803F00073002BF0D054E0104B66
:101BC00000221A60FFF750FB386108E0FFF74CFB7A
:101BD00002463B69D31A022B01D9032345E0064B89
:101BE0001B6803F00073002BF0D13DE07B689B691C
:101BF000012B07D1012338E000380240007000407B
:101C0000600047421B4B5B68FB607B689B69012B54
:101C100028D0FB6803F480027B68DB699A4221D1FB
:101C2000FB6803F03F027B681B6A9A421AD1FA688C
:101C300047F6C07313407A68526A9201934211D1F9
:101C4000FB6803F440327B689B6A5B08013B1B0422
:101C50009A4207D1FB6803F070627B68DB6A1B065F
:101C60009A4201D0012300E0002318461837BD46F0
:101C700080BD00BF0038024080B584B000AF7860FE
:101C800039607B68002B01D10123CCE0684B1B68D5
:101C900003F007033A689A420CD9654B3A68D2B20E
:101CA0001A70634B1B6803F007033A689A4201D02D
:101CB0000123B8E07B681B6803F00203002B20D0EF
:101CC0007B681B6803F00403002B05D0594B9B680D
:101CD000584A43F4E05393607B681B6803F00803A1
:101CE000002B05D0534B9B68524A43F460439360EA
:101CF000504B9B6823F0F0027B689B684D4913436F
:101D00008B607B681B6803F00103002B44D07B6869
:101D10005B68012B07D1474B1B6803F40033002B92
:101D200019D101237FE07B685B68022B03D07B68BD
:101D30005B68032B07D13F4B1B6803F00073002B3C
:101D400009D101236FE03B4B1B6803F00203002B1A
:101D500001D1012367E0374B9B6823F003027B68C6
:101D60005B68344913438B60FFF77EFAF8600AE042
:101D7000FFF77AFA0246FB68D31A41F2883293429F
:101D800001D903234FE02B4B9B6803F00C027B68C7
:101D90005B689B009A42EBD1254B1B6803F007035D
:101DA0003A689A420CD2224B3A68D2B21A70204B4F
:101DB0001B6803F007033A689A4201D0012332E01E
:101DC0007B681B6803F00403002B08D0194B9B6849
:101DD00023F4E0527B68DB68164913438B607B6811
:101DE0001B6803F00803002B09D0124B9B6823F4F7
:101DF00060427B681B69DB000E4913438B6000F077
:101E000021F802460B4B9B681B0903F00F030A499C
:101E1000CB5C22FA03F3094A1360094B1B6818468E
:101E2000FFF7DEF9002318461037BD4680BD00BF1E
:101E3000003C024000380240304E000864000020A0
:101E4000680000202DE9B04F94B000AF00237B6400
:101E50000023FB6400233B640023BB64794B9B6835
:101E600003F00C03082B0DD0082B00F2E180002BAF
:101E700002D0042B03D0DBE0734BBB64DBE0734B7D
:101E8000BB64D8E06F4B5B6803F03F037B646D4B32
:101E90005B6803F48003002B63D06A4B5B689B098B
:101EA0000022BB63FA63BB6BC3F308033B630023ED
:101EB0007B63D7E90C4522462B464FF000004FF0DC
:101EC0000001590141EAD261500102460B46214608
:101ED000511A3961294663EB01037B614FF000021F
:101EE0004FF00003D7E904AB59468B01514643EA52
:101EF000916351468A015146B2EB0108594663EBA2
:101F000001094FF000024FF000034FEAC90343EA12
:101F100058734FEAC80290469946234618EB0303CC
:101F2000BB602B4649EB0303FB604FF000024FF010
:101F30000003D7E9024529464B02214643EAD15323
:101F400021464A02104619467B6C0022BB62FA62A7
:101F5000D7E90A23FEF700FC02460B461346FB6452
:101F600058E0384B5B689B09002218461146C0F3C5
:101F700008033B6200237B62D7E9088942464B464F
:101F80004FF000004FF00001590141EAD2615001C9
:101F900002460B464146B2EB010A494663EB010B90
:101FA0004FF000024FF000034FEA8B1343EA9A63AD
:101FB0004FEA8A12B2EB0A0463EB0B054FF0000202
:101FC0004FF00003EB0043EA5473E20014461D4651
:101FD0004346E3183B604B4645EB03037B604FF001
:101FE00000024FF00003D7E9004529468B02214645
:101FF00043EA915321468A02104619467B6C00221F
:10200000BB61FA61D7E90623FEF7A6FB02460B4641
:102010001346FB640B4B5B681B0C03F0030301339B
:102020005B003B64FA6C3B6CB2FBF3F3BB6402E015
:10203000054BBB6400BFBB6C18465037BD46BDE8BE
:10204000B08F00BF003802400024F40000127A0074
:1020500080B400AF034B1B681846BD465DF8047B97
:10206000704700BF6400002080B500AFFFF7F0FFAD
:102070000246054B9B689B0A03F007030349CB5CB0
:1020800022FA03F3184680BD00380240404E000893
:1020900080B500AFFFF7DCFF0246054B9B685B0B8A
:1020A00003F007030349CB5C22FA03F3184680BD13
:1020B00000380240404E000880B582B000AF786022
:1020C0007B68002B01D101233FE07B6893F83D3012
:1020D000DBB2002B06D17B68002283F83C207868B5
:1020E000FFF714F87B68242283F83D207B681B6887
:1020F000DA687B681B6822F40052DA60786800F0C6
:1021000029F97B681B681A697B681B6822F4904276
:102110001A617B681B685A697B681B6822F02A0277
:102120005A617B681B68DA687B681B6842F400525E
:10213000DA607B6800221A647B68202283F83D20E5
:102140007B68202283F83E20002318460837BD46CE
:1021500080BD80B58AB002AFF860B9603B601346BD
:10216000FB8000237B61FB6893F83D30DBB2202BC2
:102170007CD1BB68002B02D0FB88002B01D101234E
:1021800075E0FB6893F83C30012B01D102236EE02F
:10219000FB68012283F83C20FB6800221A64FB687C
:1021A000212283F83D20FFF75FF87861FB68FA8809
:1021B0009A84FB68FA88DA84FB689B68B3F5805FD1
:1021C00008D1FB681B69002B04D10023FB61BB68AD
:1021D000BB6103E0BB68FB610023BB61FB680022BD
:1021E00083F83C202AE03B6800937B690022802131
:1021F000F86800F040F80346002B01D0032336E0D6
:10220000FB69002B0BD1BB691B881A46FB681B6856
:10221000C2F308025A60BB690233BB6107E0FB6985
:102220001A78FB681B685A60FB690133FB61FB6825
:10223000DB8C9BB2013B9AB2FB68DA84FB68DB8CD7
:102240009BB2002BCFD13B6800937B6900224021D9
:10225000F86800F010F80346002B01D0032306E0D5
:10226000FB68202283F83D20002300E0022318466B
:102270002037BD4680BD80B590B000AFF860B96032
:102280003B601346FB7150E0BB6CB3F1FF3F4CD099
:10229000BB6C002B07D0FEF7E7FF02463B68D31A62
:1022A000BA6C9A4241D2FB681B680C33BB62BB6AB2
:1022B00053E8003F7B627B6A23F4D073FB63FB68C7
:1022C0001B680C33FA6B7A633B63396B7A6B41E8BA
:1022D0000023FB62FB6A002BE5D1FB681B6814330B
:1022E0007B617B6953E8003F3B613B6923F001035D
:1022F000BB63FB681B681433BA6B3A62FB61F96914
:102300003A6A41E80023BB61BB69002BE5D1FB6859
:10231000202283F83D20FB68202283F83E20FB68C2
:10232000002283F83C2003230FE0FB681B681A6837
:10233000BB681340BA689A420CBF01230023DBB28A
:102340001A46FB799A429FD0002318464037BD4673
:1023500080BD00002DE9B04FC0B000AFC7F8F40059
:10236000D7F8F4301B681B6923F44050D7F8F430D9
:10237000D968D7F8F4301A6840EA01031361D7F836
:10238000F4309A68D7F8F4301B691A43D7F8F43060
:102390005B691A43D7F8F430DB691343C7F8F830A8
:1023A000D7F8F4301B68DB6823F4164121F00C01E8
:1023B000D7F8F4301A68D7F8F8300B43D360D7F861
:1023C000F4301B685B6923F44070D7F8F4309969E6
:1023D000D7F8F4301A6840EA01035361D7F8F430B3
:1023E0001A688F4B9A4205D0D7F8F4301A688D4B93
:1023F0009A4204D1FFF74CFEC7F8FC0003E0FFF758
:1024000033FEC7F8FC00D7F8F430DB69B3F5004FB2
:1024100040F00C81D7F8FC300022C7F8E830C7F84C
:10242000EC20D7E93A4522462B469118B9655B4125
:10243000FB65D7E91623214612EB0108294643EB39
:1024400001094FF000024FF000034FEAC90343EACD
:1024500058734FEAC80290469946234618EB030387
:10246000C7F8E0302B4649EB0303C7F8E430D7F850
:10247000F4305B680022C7F8D830C7F8DC20D7E911
:1024800036120B46DB183B65134642EB03037B65B4
:10249000D7E91423D7E93801FEF75EF902460B4667
:1024A000614BA3FB02235B091C01D7F8FC3000221F
:1024B000C7F8D030C7F8D420D7E9348942464B4614
:1024C0009118B9645B41FB64D7E91223414612EBD2
:1024D000010A494643EB010B4FF000024FF00003A5
:1024E0004FEACB0343EA5A734FEACA0292469B462D
:1024F00043461AEB0303C7F8C8304B464BEB0303C4
:10250000C7F8CC30D7F8F4305B680022C7F8C03089
:10251000C7F8C420D7E930120B46DB183B641346DA
:1025200042EB03037B64D7E91023D7E93201FEF7BE
:1025300013F902460B4611463B4BA3FB01235B09F3
:10254000642202FB03F3CB1ADB0003F13202364BA9
:10255000A3FB02235B095B0003F4F8731C44D7F868
:10256000FC300022C7F8B830C7F8BC20D7E92E8964
:1025700042464B469118B9635B41FB63D7E90E2392
:1025800041465118396349464B417B634FF0000285
:102590004FF00003D7E90CAB5946CB00514643EA54
:1025A00051735146CA0010461946034642469B18CD
:1025B000C7F8B0304B460A4642EB0303C7F8B430C5
:1025C000D7F8F4305B680022C7F8A830C7F8AC2011
:1025D000D7E92A120B46DB18BB62134642EB030312
:1025E000FB62D7E90A23D7E92C01FEF7B5F80246CA
:1025F0000B460D4BA3FB02135B09642101FB03F3A4
:10260000D31ADB003233084AA2FB03235B0903F031
:102610000702D7F8F4301B6822449A6005E100BF36
:1026200000100140001401401F85EB51D7F8FC3029
:102630000022C7F8A030C7F8A420D7E9288942466D
:102640004B46911839625B417B62D7E908234146CA
:102650005418494643EB01054FF000024FF00003C8
:10266000EB0043EA5473E20014461D464346E31868
:10267000C7F898304B4645EB0303C7F89C30D7F8B2
:10268000F4305B680022C7F89030C7F894204FF010
:1026900000024FF00003D7E9244529468B0021466C
:1026A00043EA917321468A00D7E92601FEF754F8E0
:1026B00002460B46604BA3FB02235B091C01D7F8C3
:1026C000FC300022C7F88830C7F88C20D7E922896F
:1026D00042464B469118B9615B41FB61D7E906233D
:1026E00041465118396149464B417B614FF0000228
:1026F0004FF00003D7E904AB5946CB00514643EAFB
:1027000051735146CA0010461946034642469B186B
:10271000C7F880304B460A4642EB0303C7F88430C3
:10272000D7F8F4305B680022BB67FA674FF000020D
:102730004FF00003D7E91E8949468B00414643EA22
:10274000917341468A00D7E92001FEF705F8024659
:102750000B46394BA3FB02135B09642101FB03F316
:10276000D31A1B013233344AA2FB03235B0903F063
:10277000F0031C44D7F8FC3000223B677A67D7E9A6
:102780001C8942464B469118B9605B41FB60D7E912
:10279000022341465118396049464B417B604FF056
:1027A00000024FF00003D7E900AB5946CB00514679
:1027B00043EA51735146CA00104619460346424641
:1027C0009B18BB664B460A4642EB0303FB66D7F8F1
:1027D000F4305B6800223B667A664FF000024FF0EF
:1027E0000003D7E9188949468B00414643EA9173B3
:1027F00041468A00D7E91A01FDF7AEFF02460B46B3
:102800000D4BA3FB02135B09642101FB03F3D31AF5
:102810001B013233084AA2FB03235B0903F00F02BA
:10282000D7F8F4301B6822449A6000BF07F5807720
:10283000BD46BDE8B08F00BF1F85EB5180B400AF2F
:1028400007494FF000024FF00003C1E90023044B99
:1028500000229A6000BFBD465DF8047B704700BF50
:10286000F000002080B483B000AF0346FB71FB7919
:10287000022B0AD0022B0ADC002B02D0012B02D043
:1028800005E0022304E0032302E0012300E0072324
:1028900018460C37BD465DF8047B7047B0B58AB06A
:1028A00004AF78600023FB7560E0FB7D9BB21A46A5
:1028B000520013445B009BB20833BB82FB7D9BB28A
:1028C0001A46520013445B009BB20C337B827B8A16
:1028D000033B3B827B8A0233FB810623BB811023AF
:1028E0007B81FB7D3133DBB23B7200237B72FB7D4E
:1028F000002B01D1072300E0002307F10802B88A6A
:102900000721019100931D4B132100F09FFBFB7DDC
:102910007A6813441B781846FFF7A4FF03461D4648
:102920007B89FA89B989388A0124029401240194A7
:10293000009500F06FFA7B89FA89B989388A0024FA
:102940000294012401940724009400F063FA7B8927
:10295000FA897989388A0024029401240194072491
:10296000009400F0A9F9FB7D0133FB75FB7D072B7B
:102970009BD900BF00BF1837BD46B0BD780000200E
:1029800080B584B004AF00F017FF0A48FFF786FF58
:10299000002302930123019301230093202340226B
:1029A0000121012000F036FA00F0F4FE00BFBD4620
:1029B00080BD00BF205D000880B584B002AF7860A4
:1029C00000F0FAFE0323019300230093134B144AF3
:1029D00003210A2000F03AFB012301930023009316
:1029E000104B114A1021282000F030FB7B6893ED3A
:1029F000007B07230193072300930223094AB0EECB
:102A0000470AF0EE670A12210A2000F069FB00F085
:102A1000C1FE00BF0837BD4680BD00BF700000206A
:102A2000084C000878000020104C000880B588B0E1
:102A300002AF78607B689B687B6100F0BDFE01237C
:102A40000193002300932A4B2A4A0321062000F019
:102A5000FDFA0323019300230093274B274A1021FB
:102A60000F2000F0F3FA7B689A6807F10C03244901
:102A7000184600F06BFF07F10C02072301930023B7
:102A800000931D4B1021342000F0E0FA0123019344
:102A900000230093184B1B4A10213A2000F0D6FA6D
:102AA0007B69002B0DDD7B69032B0ADC042301937A
:102AB00000230093104B144A1821002000F0C6FA9E
:102AC0000FE07B69042B0CDD7B69082B09DC0423F8
:102AD000019300230093084B0C4A1821002000F0BA
:102AE000B5FA00F057FE00BF1837BD4680BD00BFE5
:102AF00070000020144C000878000020184C0008DA
:102B0000204C0008244C0008284C0008344C0008D5
:102B100080B483B000AF7860044A7B68136000BF64
:102B20000C37BD465DF8047B704700BF00010020F4
:102B300080B483B000AF0346FB800B46BB801346D6
:102B40007B800A4B1B68FA88C2F17F01BA88C2F108
:102B50001F02D2010A4413447A88D2B21A7000BF0D
:102B60000C37BD465DF8047B704700BF00010020B4
:102B700090B585B000AF0446084611461A46234674
:102B8000FB800346BB800B467B8013467B70FB8833
:102B9000802B02D8BB88202B0FD9444800F0CEFEF2
:102BA000FB8880221946424800F042FEBB88202262
:102BB0001946404800F03CFE74E097F82030012BA5
:102BC00044D10023FB8139E00023BB8129E0FA884E
:102BD000B7F90E301A447B78D31A002B28DBBA8859
:102BE000B7F90C301A447B78D31A002B20DBFA8912
:102BF000FB8813449AB27B789BB2D31A98B2BA89F5
:102C0000BB8813449AB27B789BB2D31A9BB27A8862
:102C10001946FFF78DFFB7F90C309BB201339BB219
:102C2000BB81B7F90C207B785B00013B9A42CEDB7D
:102C3000B7F90E309BB201339BB2FB81B7F90E207E
:102C40007B785B00013B9A42BEDB2BE00023FB81DB
:102C500023E00023BB8115E0FA89FB8813449BB273
:102C6000013B98B2BA89BB8813449BB2013B9BB22B
:102C70007A881946FFF75CFFB7F90C309BB2013335
:102C80009BB2BB81B7F90C207B789A42E4DBB7F9A1
:102C90000E309BB201339BB2FB81B7F90E207B78DB
:102CA0009A42D6DB1437BD4690BD00BF604C000889
:102CB000984C0008BC4C000890B58DB002AF04469B
:102CC000084611461A462346FB800346BB800B4646
:102CD0007B8013463B80FB88802B08D8BB88202B49
:102CE00005D87B88802B02D83B88202B03D9474806
:102CF00000F024FE87E0FB88FB84BB88BB847A88D5
:102D0000FB88D31A002BB8BF5B42BB613A88BB88F3
:102D1000D31A002BB8BF5B425B427B61FA887B8889
:102D20009A4201D2012301E04FF0FF333B61BA88A0
:102D30003B889A4201D2012301E04FF0FF33FB6050
:102D4000BA697B6913443B620023FB77FB7F013345
:102D5000FB7797F84030012B24D1FA7F2C4BA3FB53
:102D6000021359080B465B000B44D31ADBB2002B4D
:102D700018D13B8F002B09D097F83C30B98CF88CD8
:102D8000012200920022FFF7F3FE08E097F83C30A2
:102D9000B98CF88C012200920722FFF7E9FE00238C
:102DA000FB7708E097F83C303A8FB98CF88C012417
:102DB0000094FFF7DDFE3B6A5B007A699A420CDC07
:102DC000FA8C7B889A421BD03A6A7B6913443B6237
:102DD0003B699AB2FB8C1344FB843B6A5B00BA6983
:102DE0009A42B3DBBA8C3B889A420BD03A6ABB69F1
:102DF00013443B62FB689AB2BB8C1344BB84A5E7C7
:102E000000BF00E000BF2C37BD4690BDE44C000879
:102E1000ABAAAAAA90B589B004AF044608461146E9
:102E20001A462346FB800346BB800B467B80134635
:102E30003B80FB88802B08D8BB88202B05D87B885B
:102E4000802B02D83B88202B03D92E4800F076FD3A
:102E500054E097F82830002B18D0BB88FB8110E095
:102E6000FC897A88F989F8880023029397F824303E
:102E700001933B8C00932346FFF71EFFFB89013330
:102E8000FB81FA893B889A42EAD337E0BC887A888A
:102E9000B988F8880023029397F8243001933B8C7B
:102EA00000932346FFF708FF3C88FA88B988F88822
:102EB0000023029397F8243001933B8C0093234620
:102EC000FFF7FAFEBC887A88398878880023029355
:102ED00097F8243001933B8C00932346FFF7ECFED8
:102EE0003C88FA88398878880023029397F8243040
:102EF00001933B8C00932346FFF7DEFE1437BD465B
:102F000090BD00BF1C4D000880B588B000AF7B604D
:102F10000346FB810B46BB811346FB72FB89802B6A
:102F200002D8BB89202B03D9474800F007FD87E072
:102F3000FB7A203B7A68D28802FB03F37A68928896
:102F4000D20892B211467A68928802F0070292B2D1
:102F5000002A14BF01220022D2B20A4402FB03F36A
:102F60007B617B681A687B691344BB610023FB8328
:102F700061E00023BB834CE0BB8D072B18D1BB69FC
:102F80001B781946BB8B03F00703802242FA03F338
:102F90000B40002B31D0FA89BB8B134498B2BA890D
:102FA000FB8B13449BB23A8D1946FFF7C1FD24E019
:102FB000BB691B781946BB8B03F00703802242FADA
:102FC00003F30B40002B0CD0FA89BB8B134498B24F
:102FD000BA89FB8B13449BB23A8D1946FFF7A8FDC3
:102FE0000BE0FA89BB8B134498B2BA89FB8B13446C
:102FF0009BB2BA8D1946FFF79BFDBB8B03F007030D
:103000009BB2072B02D1BB690133BB61BB8B013380
:10301000BB837B689B88BA8B9A42ADD37B689B88C5
:1030200003F007039BB2002B02D0BB690133BB61E5
:10303000FB8B0133FB837B68DB88FA8B9A4298D346
:103040002037BD4680BD00BF804D000880B588B0E8
:1030500002AFBA607B600346FB810B46BB81FB89F4
:10306000FB82BB89BB82FB89802B02D8BB89202BCA
:103070002DD91A4800F062FC2DE0FB8A7A6892880C
:103080001344802B06DDFB89FB827B68DA88BB8AD0
:103090001344BB82BB8A7A68D2881344202B03DD99
:1030A000FB89FB82BB89BB82BB681A78B98AF88A24
:1030B0003B8C0193BB8C00937B68FFF725FFBB68BB
:1030C0000133BB607B689A88FB8A1344FB82BB6830
:1030D0001B78002BD1D11837BD4680BDB84D0008F4
:1030E000F0B5ADF5137D02AF0646084607F12001A5
:1030F00001ED020B07F51071A1F508710A60194680
:1031000007F51073A3F21A2332461A8007F51073DD
:10311000A3F5077302461A8007F51073A3F22A235A
:103120000A461A800023A7F83E320023A7F83C3253
:1031300007F51073A3F58A7300221A600433FB228B
:1031400000211846FDF700FD07F51073A3F5057380
:1031500000221A600433FB2200211846FDF7F4FC1C
:1031600007F59673C7F82C3207F1200319464FF084
:1031700000024FF0000351E90201FDF76BFA03462C
:10318000002B07D007F1200353E90201FDF76CFA89
:1031900003460EE007F1200353F8082CBA6053F8F9
:1031A000043C83F00043FB60D7E90201FDF75CFAC1
:1031B0000346C7F8383207F51073A3F21A231B88A9
:1031C000802B06D807F51073A3F507731B88202BF7
:1031D00003D9C14800F0B2FB7AE107F51073A3F2FE
:1031E0002A231B88002B00F09E8007F1200319463C
:1031F0004FF000024FF0000351E90201FDF72AFAF7
:103200000346002B10D0D7F83802FDF73BF90246F1
:103210000B4607F1200151E90201FCF7E5FF0246E8
:103220000B4614461D460EE0D7F83802FDF72AF982
:1032300007F1200353E90223FCF7D8FF02460B46AF
:10324000144683F0004520462946FDF735FA03462B
:10325000C7F8343207F51073A3F22A231B8887F8C6
:1032600033320CE0D7ED8D7AB2EE047A67EE877ACE
:10327000C7ED8D7A97F83332013B87F8333297F8F0
:103280003332002BEED1D7ED8D7AFDEEE77A17EED3
:10329000903AC7F8383207F51073A3F22A231B8837
:1032A00087F833322CE0D7F838228C4B83FB02139B
:1032B0009910D317C91A0B469B000B445B00D11A17
:1032C000CAB2B7F93E323032D1B207F51072A2F568
:1032D0000572D154B7F93E329BB201339BB2A7F8C5
:1032E0003E32D7F838327D4A82FB03129210DB1748
:1032F000D31AC7F8383297F83332013B87F83332A4
:1033000097F83332002BCED1B7F93E3207F5107261
:10331000A2F505722E21D154B7F93E329BB201338A
:103320009BB2A7F83E3207F1200319464FF0000286
:103330004FF0000351E90201FDF78CF90346002B21
:1033400007D007F1200353E90201FDF78DF9034689
:103350000EE007F1200353F8082C3A6053F8043CC0
:1033600083F000437B60D7E90001FDF77DF9034658
:10337000C7F8383227E0D7F83822584B83FB0213BE
:103380009910D317C91A0B469B000B445B00D11A46
:10339000CAB2B7F93E323032D1B207F51072A2F597
:1033A0000572D154B7F93E329BB201339BB2A7F8F4
:1033B0003E32D7F83832494A82FB03129210DB17AB
:1033C000D31AC7F83832D7F83832002BD3D107F1E7
:1033D000200319464FF00002414B51E90201FDF76D
:1033E0001BF90346002B1BD007F1200319464FF0B1
:1033F00000023C4B51E90201FDF72CF90346002B7A
:103400000ED0B7F93E3207F51072A2F505723021E1
:10341000D154B7F93E329BB201339BB2A7F83E328A
:1034200007F1200319464FF000024FF0000351E965
:103430000201FDF7F1F80346002B0ED0B7F93E323A
:1034400007F51072A2F505722D21D154B7F93E325D
:103450009BB201339BB2A7F83E321CE0B7F93E3273
:103460005A1EB7F93C3207F51071A1F50571895C58
:1034700007F51072A2F58A72D154B7F93C329BB2AB
:1034800001339BB2A7F83C32B7F93E329BB2013B05
:103490009BB2A7F83E32B7F93E32002BDEDC07F5CF
:1034A0001073A3F5087307F51072A2F5077211885F
:1034B00007F51072A2F21A221088B7F85C22019266
:1034C000B7F8582200921B68D7F82C22FFF7BEFDF0
:1034D00007F51177BD46F0BDF44D000867666666D6
:1034E0000000F03F0000F0BF80B400AF0C4BDB6881
:1034F00003F08073002B0ED1094BDB68084A43F0C0
:103500008073D360074B00225A60064B1B68054A44
:1035100043F00103136000BFBD465DF8047B7047B4
:10352000F0ED00E0001000E080B500AF0248FFF7CA
:10353000EFFA00BF80BD00BF0401002080B582B05B
:1035400000AF8E4B00221A800DE18D4B00221A80B5
:1035500095E08B4B1B881A46884B1B88DB01134474
:10356000884AD35C03F00103002BCCBF0123002366
:10357000DBB21A464FF480518348FEF7EBF8804BDC
:103580001B881A467D4B1B88DB0113447D4AD35CA4
:1035900003F00203002BCCBF01230023DBB21A4649
:1035A0004FF400617948FEF7D5F8754B1B881A4631
:1035B000724B1B88DB011344724AD35C03F0040393
:1035C000002BCCBF01230023DBB21A464FF48051FD
:1035D0006E48FEF7BFF86A4B1B881A46674B1B887C
:1035E0001033DB011344674AD35C03F00103002B63
:1035F000CCBF01230023DBB21A464FF4807164482C
:10360000FEF7A8F85E4B1B881A465C4B1B881033EC
:10361000DB0113445B4AD35C03F00203002BCCBFF5
:1036200001230023DBB21A4640215948FEF792F8E5
:10363000534B1B881A46514B1B881033DB01134434
:10364000504AD35C03F00403002BCCBF01230023BA
:10365000DBB21A464FF480714C48FEF77BF800222B
:1036600020214A48FEF776F8012220214748FEF73C
:1036700071F8434B1B8801339AB2414B1A80404B7F
:103680001B887F2B7FF665AF3C4B1B8803F0010343
:10369000002BCCBF01230023DBB21A464FF400718C
:1036A0003A48FEF757F8354B1B8803F00203002B0E
:1036B000CCBF01230023DBB21A4680213448FEF739
:1036C00049F82E4B1B8803F00403002BCCBF0123C9
:1036D0000023DBB21A4640212B48FEF73BF8274B6C
:1036E0001B8803F00803002BCCBF01230023DBB2AF
:1036F0001A4680212548FEF72DF8204B1B8803F041
:103700001003002BCCBF01230023DBB21A4640215B
:103710001E48FEF71FF801224FF400711A48FEF709
:1037200019F800224FF400711748FEF713F8002231
:103730004FF480711448FEF70DF800237B6002E01F
:103740007B6801337B607B68B3F5FA6FF8DB01229D
:103750004FF480710C48FDF7FDFF084B1B880133C7
:103760009AB2064B1A80054B1B880F2B7FF6EDAEE5
:1037700000BF00BF0837BD4680BD00BF0611002056
:103780000411002004010020000402400000024057
:103790000008024080B582B000AF04E0FFF7CEFE23
:1037A000FB790133FB71FB79C72BF7D900BF00BF51
:1037B0000837BD4680BD000080B500AF4FF4805291
:1037C00000210248FDF7C0F900BF80BD04010020C0
:1037D000DFF834D00D480E490E4A002302E0D458D9
:1037E000C4500433C4188C42F9D30B4A0B4C002349
:1037F00001E013600432A242FBD3FDF74BFCFDF75E
:103800007FF9FDF771FA7047008001200000002069
:1038100080000020CC5D00088000002018110020EE
:10382000FEE70000014B1868704700BF0000002051
:103830000FB40A4B13B51C6824B1A36913B9204611
:1038400000F0E4FA05AB049AA1680193204600F069
:103850005BFE02B0BDE8104004B0704700000020DD
:1038600070B50E46054618B183690BB900F0CEFA63
:10387000AB69AC6813B9284600F0C8FA2C4B9C42DF
:1038800020D16C68636EDB0705D4A389980502D448
:10389000A06D00F059FBA38919071DD52369DBB181
:1038A000013EA36816F8011F013BA36039BB002B42
:1038B00038DA22460A21284600F0ACF8013011D04F
:1038C0000A2511E01B4B9C4201D1AC68DAE71A4B88
:1038D0009C4208BFEC68D5E72146284600F0FEF878
:1038E0000028DDD04FF0FF35636EDA0705D4A389D9
:1038F0009B0502D4A06D00F028FB284670BD002B6C
:1039000004DAA2699A4206DC0A2904D023685A1C08
:1039100022601970C5E72246284600F07BF8013086
:10392000BFD1DFE723680A255A1C22601D70DBE740
:10393000485D0008685D0008285D0008024B0146EC
:103940001868FFF78DBF00BF000000200EB400B55F
:103950009CB01DAB029006906FF0004109480791A2
:103960000491094953F8042B05910068019302A9B9
:1039700000F0A0FC029B00221A701CB05DF804EB62
:1039800003B07047000000200802FFFF10B50C468E
:10399000B1F90E1001F07CF80028ABBF636DA3896C
:1039A0001B1823F48053ACBF6365A38110BD2DE9C0
:1039B000F0411F468B89DB0505460C46164605D5AA
:1039C000B1F90E100223002200F0C0FAA389B4F965
:1039D0000E1023F48053A38132463B462846BDE8AF
:1039E000F04100F069B810B50C46B1F90E1000F0C6
:1039F000ADFA431CA38915BF606523F4805343F4DB
:103A00008053A38118BFA38110BDB1F90E1000F03F
:103A1000D3B80000F8B50E461446054618B18369C0
:103A20000BB900F0F3F9214B9C422BD16C68A369D0
:103A3000A360A3891A072FD523696BB32369206874
:103A4000C01A6369F6B28342374604DC2146284631
:103A500000F048F930BBA368013BA36023685A1CFF
:103A600022601E7063690130834204D0A389DB07A2
:103A700006D50A2E04D12146284600F033F988B92C
:103A80003846F8BD0A4B9C4201D1AC68CFE7094BE0
:103A90009C4208BFEC68CAE72146284600F01EF8A1
:103AA0000028CBD04FF0FF37EAE700BF485D0008A1
:103AB000685D0008285D000838B5074D04460846D3
:103AC000114600222A601A46FDF75DFA431C02D116
:103AD0002B6803B1236038BD14110020324B70B540
:103AE0001D6806460C4625B1AB6913B9284600F09F
:103AF0008DF92E4B9C420FD16C68A389B4F90C2030
:103B000019072CD4DD0611D40923336042F0400399
:103B1000A3814FF0FF303EE0254B9C4201D1AC68C1
:103B2000EBE7244B9C4208BFEC68E6E7580712D548
:103B3000616B41B104F14403994202D0304600F078
:103B40007DFA00236363A38923F02403A381002368
:103B5000636023692360A38943F00803A381236979
:103B60004BB9A38903F42073B3F5007F03D021463A
:103B7000304600F023FAA089B4F90C2010F00103BC
:103B80000AD00023A36063695B42A361236943B940
:103B900010F08000BAD170BD810758BF6369A3607F
:103BA000F4E70020F7E700BF00000020485D0008B0
:103BB000685D0008285D000838B5064D00230446FE
:103BC00008462B60FDF7FBF9431C02D12B6803B1BB
:103BD000236038BD141100208A892DE9F041054683
:103BE00010070C4658D44B68002B05DC0B6C002BDF
:103BF00002DC0020BDE8F081E66A002EF9D0002347
:103C000012F480522F682B6032D0606DA3895A075E
:103C100005D56368C01A636B0BB1236CC01A00230F
:103C20000246E66A216A2846B047431CA38906D1AA
:103C300029681D292CD82A4ACA40D60728D500222F
:103C40006260D9042269226004D5421C01D12B682C
:103C500003B96065616B2F600029CAD004F1440389
:103C6000994202D0284600F0E9F900206063C1E7DC
:103C7000216A01232846B047411CC7D12B68002B7D
:103C8000C4D01D2B01D0162B01D12F60B1E7A38921
:103C900043F04003A381ADE70F69002FA9D093073C
:103CA0000E6808BF4B690F6018BF0023A6EB07081A
:103CB0008B60B8F1000F9CDD216AA66A43463A4644
:103CC0002846B047002806DCA38943F04003A381BF
:103CD0004FF0FF308EE70744A8EB0008E9E700BF8C
:103CE0000100402038B50B6905460C4613B9002584
:103CF000284638BD18B183690BB900F087F8144B1A
:103D00009C421BD16C68B4F90C30002BEFD0626E72
:103D1000D00704D4990502D4A06D00F015F9284607
:103D20002146FFF759FF636EDA070546E0D4A38901
:103D30009B05DDD4A06D00F008F9D9E7054B9C4246
:103D400001D1AC68DFE7044B9C4208BFEC68DAE7BE
:103D5000485D0008685D0008285D0008002310B574
:103D60000446C0E90033C0E90433836081814366BF
:103D7000C2818361194608225C30FCF7E5FE054BE1
:103D80006362054BA362054BE362054B2462236328
:103D900010BD00BF8D390008AF390008E7390008B1
:103DA0000B3A0008014900F0AFB800BFE53C00083D
:103DB00070B568224D1E55430E4605F1740100F0A2
:103DC000A9F9044640B10021C0E900160C30A060FA
:103DD00005F16802FCF7B8FE204670BD014800F00E
:103DE000B3B800BF09110020014800F0AEB800BF11
:103DF00009110020014800F0A7B800BF0A110020F7
:103E0000014800F0A2B800BF0A11002010B5044616
:103E1000FFF7F0FFA3691BB1BDE81040FFF7F0BF4B
:103E2000C4E912332365134B134A1B68A262A342F1
:103E300004BF0123A361204600F020F86060204603
:103E400000F01CF8A060204600F018F80022E060A6
:103E500004216068FFF782FFA06801220921FFF7B3
:103E60007DFFE06802221221FFF778FF0123A361A2
:103E7000D2E700BF2C4E0008A53D0008F8B5074664
:103E8000FFF7ACFF1E4B1E68B36913B93046FFF74E
:103E9000BDFF4836D6E90134013B03D533680BB387
:103EA0003668F7E7B4F90C50D5B9164BE36004F166
:103EB0005800656600F047F8FFF796FFC4E9015522
:103EC000C4E904552560A5610822294604F15C0077
:103ED000FCF73AFEC4E90D55C4E912552046F8BD79
:103EE0006834D9E704213846FFF762FF04463060A2
:103EF0000028D5D1FFF778FF0C233B60EEE700BF29
:103F00002C4E00080100FFFF2DE9F84306468846C5
:103F100000F148040027D4E90195B9F1010905D55C
:103F20002468002CF7D13846BDE8F883AB89012B13
:103F300007D9B5F90E30013303D029463046C047C2
:103F400007436835E9E770477047704738B5074D54
:103F500004460846114600222A601A46FDF756F824
:103F6000431C02D12B6803B1236038BD141100201B
:103F700070B50E46B1F90E10002996B014461D46D4
:103F800008DAB6F90C3000222A601A0610D44FF471
:103F900080630EE06A4600F09DFD0028F1DB019A87
:103FA00002F47042A2F500535A425A412A60EEE7E9
:103FB00040230020236016B070BD00008B8973B5CC
:103FC0009D0706460C4607D504F14703236023618D
:103FD0000123636102B070BD01AB6A46FFF7C8FF01
:103FE00000990546304600F095F848B9B4F90C3010
:103FF0009A05EFD423F0030343F00203A381E3E720
:104000000D4BB362A389206043F08003A381009B22
:104010006361019B20615BB1B4F90E10304600F082
:104020006BFD28B1A38923F0030343F00103A381AF
:10403000A0890543A581CDE7A53D000837B5002936
:1040400044D051F8043C0190002BA1F10404B8BF06
:10405000E41800F089FD1E4A0198136833B96360C3
:10406000146003B0BDE8304000F084BDA34208D91D
:10407000256861198B4201BF19685B684919216085
:10408000EDE71A465B680BB1A342FAD911685518DF
:10409000A5420BD1246821445418A3421160E0D1F9
:1040A0001C685B68536021441160DAE702D90C2375
:1040B0000360D6E7256861198B4204BF19685B6805
:1040C000636004BF491921605460CAE703B030BD82
:1040D0000C11002070B50E4E0C463168054611B922
:1040E00000F0E8FC30602146284600F0E3FC431C69
:1040F0000AD0C41C24F00304A04207D0211A284689
:1041000000F0D8FC013001D14FF0FF34204670BDE3
:10411000101100202DE9F041CD1C25F003050835D4
:104120000C2D38BF0C25002D074601DBA94205D90F
:104130000C233B6000263046BDE8F0812E4E00F097
:1041400013FD33681C4634BB29463846FFF7C2FFCF
:10415000431C04464DD134682646002E40D12368C6
:104160003146384604EB030800F0A4FC80453AD100
:10417000216803356D1A25F0030508350C2D38BF6D
:104180000C2529463846FFF7A5FF01302BD02368C0
:104190002B4423600EE02268521B1ED40B2A16D932
:1041A0006119A342256018BF5960636808BF316078
:1041B00062514B60384604F10B0600F0DBFC26F040
:1041C0000706231DF21AB6D09B1BA350B3E7626803
:1041D000A3420CBF32605A60ECE723466468B2E742
:1041E00034467668B9E70C233B60384600F0C2FCE1
:1041F000A1E72560DEE700BF0C1100202DE9F047A4
:104200008E689E4282460C4690461F4638D88A8960
:1042100012F4906F32D025680969A5EB0109656930
:1042200005EB450505EBD57501334B446D109D42FB
:1042300038BF1D46530531D52946FFF76BFF0646AB
:1042400050B90C23CAF80030A38943F04003A3817E
:104250004FF0FF30BDE8F08721694A4600F05CFC72
:10426000A38923F4906343F08003A38126616561F1
:104270004E44A5EB09052660A5603E46BE4200D926
:104280003E4620683246414600F054FCA3689B1B22
:10429000A3602368334423600020DBE72A4600F054
:1042A0006FFC06460028E1D121695046FFF7C6FEA3
:1042B000C7E700002DE9F04F98468B891B069DB09B
:1042C00007460D4614460ED50B6963B94021FFF72A
:1042D00021FF2860286120B90C233B604FF0FF309C
:1042E000D1E040236B610023099320238DF829300E
:1042F000CDF80C803023DFF8A8818DF82A304FF0FC
:10430000010923469A4613F8012B0AB1252AF9D14F
:10431000BAEB040B0BD05B46224629463846FFF722
:104320006DFF013000F0AA80099A5A4409929AF868
:104330000030002B00F0A28000234FF0FF32CDE9C7
:1043400005230AF1010A049307938DF853301A9359
:104350005446052214F8011B5148FCF781FB049ACE
:10436000D8B9D00644BF20238DF85330110744BF7D
:104370002B238DF853309AF800302A2B15D0079A4A
:10438000544600204FF00A0C214611F8013B303B07
:10439000092B4ED9B0B1079214E0A0EB080309FA3B
:1043A00003F313430493A246D2E7039B191D1B6832
:1043B0000391002BBBBF5B4242F0020207930793BD
:1043C000B8BF049223782E2B0CD163782A2B35D1D9
:1043D000039B1A1D1B680392002BB8BF4FF0FF33DD
:1043E00002340593DFF8C8A0217803225046FCF779
:1043F00037FB40B14023A0EB0A0003FA00F0049B16
:1044000003430134049314F8011B26488DF8281047
:104410000622FCF725FB002838D0234B1BBB039B4F
:10442000073323F0070308330393099B33440993AD
:1044300067E70CFB02320C460120A5E7002301349C
:10444000059319464FF00A0C204610F8012B303A1C
:10445000092A03D9002BC5D00591C3E70CFB012124
:1044600004460123F0E703AB00932A460F4B04A94F
:104470003846AFF30080421C0646D6D1AB895B06B6
:104480003FF52CAF09981DB0BDE8F08F03AB00934A
:104490002A46064B04A9384600F0D4F9EBE700BFE2
:1044A000885D0008925D000800000000FD410008E2
:1044B0008E5D00089368013B002B10B4936008DA0E
:1044C0009469A34201DB0A2903D15DF8044BFFF78D
:1044D000A1BA1368581C1060197008465DF8044BA7
:1044E0007047F8B506460F461446D518AC4201D1C0
:1044F000002007E014F8011B3A463046FFF7DAFFC8
:10450000431CF3D1F8BD00002DE9F04F0D469DB0DE
:1045100014469846064618B183690BB9FFF776FC36
:10452000894B9D421BD175686B6ED90705D4AB8949
:104530009A0502D4A86DFFF707FDAB891B0701D5CB
:104540002B69EBB929463046FFF7C8FAC0B16B6E4C
:10455000DC070ED54FF0FF301DB0BDE8F08F7B4B70
:104560009D4201D1B568DFE7794B9D4208BFF568F0
:10457000DAE7AB899805EDD4A86DFFF7E6FCE9E72B
:104580000023099320238DF82930CDF80C803023A7
:10459000DFF8C0818DF82A304FF0010923469A4692
:1045A00013F8012B0AB1252AF9D1BAEB040B0BD071
:1045B0005B46224629463046FFF793FF013000F064
:1045C000AA80099A5A4409929AF80030002B00F008
:1045D000A28000234FF0FF32CDE905230AF1010A42
:1045E000049307938DF853301A935446052214F818
:1045F000011B5848FCF734FA049AD8B9D10644BFD5
:1046000020238DF85330130744BF2B238DF85330EC
:104610009AF800302A2B15D0079A544600204FF004
:104620000A0C214611F8013B303B092B4ED9B0B1A1
:10463000079214E0A0EB080309FA03F31343049371
:10464000A246D2E7039B191D1B680391002BBBBF39
:104650005B4242F0020207930793B8BF04922378AB
:104660002E2B0CD163782A2B35D1039B1A1D1B6886
:104670000392002BB8BF4FF0FF3302340593DFF8ED
:10468000E4A0217803225046FCF7EAF940B1402328
:10469000A0EB0A0003FA00F0049B034301340493E7
:1046A00014F8011B2C488DF828100622FCF7D8F9C5
:1046B00000283FD0294B1BBB039B073323F0070384
:1046C00008330393099B3B44099367E70CFB0232D1
:1046D0000C460120A5E700230134059319464FF04D
:1046E0000A0C204610F8012B303A092A03D9002B76
:1046F000C5D00591C3E70CFB012104460123F0E777
:1047000003AB00932A46164B04A93046AFF3008052
:104710000746781CD6D16B6ED90705D4AB899A05AC
:1047200002D4A86DFFF711FCAB895B063FF512AF11
:10473000099811E703AB00932A46094B04A93046B8
:1047400000F080F8E4E700BF485D0008685D0008FD
:10475000285D0008885D0008925D000800000000E8
:10476000E34400088E5D00082DE9F047164699469F
:104770008A680B69DDF820809342B8BF1346336026
:1047800091F8432007460C460AB101333360236891
:10479000990642BF336802333360256815F0060579
:1047A00006D104F1190AE36832689B1AAB4226DC91
:1047B00094F84320131E226818BF012392062BD4BD
:1047C00004F1430249463846C04701301ED02368F1
:1047D000E568326803F00603042B08BFAD1AA3682E
:1047E00022690CBF25EAE57500259342C4BF9B1AD8
:1047F000ED1800261A34B5421AD1002008E0012332
:10480000524649463846C047013003D14FF0FF3089
:10481000BDE8F0870135C6E7E1185A1C302081F861
:104820004300224494F8451082F843100233C7E74E
:104830000123224649463846C0470130E6D00136BA
:10484000D9E700002DE9FF470F7E0C9D782F914698
:1048500080460C469A4601F1430207D8622F0AD8D7
:10486000002F00F0D880582F00F0A38004F14205FB
:1048700084F842703AE0A7F16303152BF6D801A142
:1048800051F823F0DD480008F14800086D480008A1
:104890006D4800086D4800086D480008F1480008A0
:1048A0006D4800086D4800086D4800086D48000814
:1048B000FD49000821490008DF4900086D4800084B
:1048C0006D4800081F4A00086D480008214900088B
:1048D0006D4800086D480008E74900082B681A1D5C
:1048E0001B682A6004F1420584F842300123A3E0EA
:1048F00020682968060601F104030AD50E682B60BA
:10490000002E03DA2D23764284F843305E480A23D2
:1049100019E00E682B6010F0400F18BF36B2EFE7B9
:104920002B682068191D2960010601D51E6802E068
:104930004606FBD51E8854486F2F0CBF08230A2358
:10494000002184F843106568A560002DA2BF21688E
:1049500021F0040121600EB9002D4DD01546B6FBA3
:10496000F3F103FB1167C75D05F8017D3746BB42D4
:104970000E46F4D9082B0BD12368DE0708D523692E
:1049800061689942DEBF302305F8013C05F1FF352F
:10499000521B2261CDF800A04B4603AA2146404697
:1049A000FFF7E2FE01304CD14FF0FF3004B0BDE81C
:1049B000F087354881F845702968236851F8046B01
:1049C00029601D0614D5DF0744BF43F02003236090
:1049D0001EB9236823F0200323601023B0E7236867
:1049E00043F0200323607823284884F84530E3E728
:1049F000590648BFB6B2E6E71546BBE72B682668FE
:104A00006169181D286035061B6801D5196002E030
:104A10007006FBD51980002323611546BAE72B6881
:104A20001A1D2A601D68626800212846FCF718F8E4
:104A300008B1401B606063682361002384F8433041
:104A4000A8E723692A4649464046D0470130ABD003
:104A500023689B0713D4E068039B9842B8BF1846AD
:104A6000A4E70123324649464046D04701309BD057
:104A70000135E36803995B1AAB42F2DCEBE70025F2
:104A800004F11906F5E700BF995D0008AA5D00086A
:104A900038B5074D04460846114600222A601A46DA
:104AA000FCF754FA431C02D12B6803B1236038BDD4
:104AB0001411002038B5064D0023044608462B602B
:104AC000FCF7B2FA431C02D12B6803B1236038BD56
:104AD0001411002038B5074D00230446084611463E
:104AE0002B60FCF778FA431C02D12B6803B12360DA
:104AF00038BD00BF1411002038B5064D0023044610
:104B000008462B60FCF777FA431C02D12B6803B1EF
:104B1000236038BD141100200A44914200F1FF3394
:104B200000D1704710B511F8014B03F8014F9142C5
:104B3000F9D110BD884210B501EB020402D98442BC
:104B4000234607D8431EA14208D011F8012B03F8D1
:104B5000012FF8E7024401468A4200D110BD13F844
:104B6000014D02F8014DF7E70148FFF7EDB900BF2D
:104B7000081100200148FFF7E8B900BF0811002024
:104B80002DE9F041804614460E4621B9BDE8F041BA
:104B90001146FFF7BFBA2AB9FFF750FA2546284653
:104BA000BDE8F08100F01BF88442074602D8B4EB60
:104BB000500F12D821464046FFF7ACFA05460028B0
:104BC000EDD0BC422246314628BF3A46FFF7A4FF4B
:104BD00031464046FFF732FAE1E73546DFE751F864
:104BE000043C181F002BBCBF0B58C01870470000B6
:104BF000F8B500BFF8BC08BC9E467047F8B500BFCA
:084C0000F8BC08BC9E46704799
:104C0800434F2D320000000070706D00474F0000C8
:104C18004E756D6265720000256400002100000079
:104C28003C2D2D2D2D2D2D2D2D2D2D002D2D2D2DCA
:104C38002D2D2D2D2D2D3E00546865206D696E6932
:104C48006D756D20636F6F7264696E61746520693C
:104C58007320310D000000005061696E745F44726A
:104C68006177506F696E7420496E7075742065782D
:104C7800636565647320746865206E6F726D616C1E
:104C880020646973706C61792072616E67650D00CC
:104C980058706F696E74203D202564202C20506167
:104CA800696E742E5769647468203D20256420203D
:104CB8000D0A200059706F696E74203D202564200C
:104CC8002C205061696E742E486569676874203DB0
:104CD80020256420200D0A20000000005061696E24
:104CE800745F447261774C696E6520496E707574A3
:104CF800206578636565647320746865206E6F72DB
:104D08006D616C20646973706C61792072616E6783
:104D1800650D0000496E707574206578636565647B
:104D28007320746865206E6F726D616C206469739E
:104D3800706C61792072616E67650D005061696EF3
:104D4800745F44726177436972636C6520496E7061
:104D58007574206578636565647320746865206E72
:104D68006F726D616C20646973706C617920726117
:104D78006E67650D000000005061696E745F4472D3
:104D880061774368617220496E7075742065786335
:104D98006565647320746865206E6F726D616C2040
:104DA800646973706C61792072616E67650D0000CB
:104DB8005061696E745F44726177537472696E678B
:104DC8005F454E20496E707574206578636565642B
:104DD8007320746865206E6F726D616C20646973EE
:104DE800706C61792072616E67650D005061696E43
:104DF800745F4469734E756D20496E7075742065D3
:104E080078636565647320746865206E6F726D6180
:104E18006C20646973706C61792072616E67650DCE
:104E28000000000004000020000000000000000056
:104E38000102030406070809000000000102030438
:104E4800000000000000000000000000000000005A
:104E5800000000000000000000000000000000004A
:104E680000000C000C000C000C000C000C000C00E6
:104E78000C0000000C000000000000000000000012
:104E8800000000001DC01DC00880088008800000C8
:104E9800000000000000000000000000000000000A
:104EA80000000D800D800D800D803FC01B003FC0AD
:104EB8001B001B001B001B0000000000000000007E
:104EC80004001F803180318038001E000F000380ED
:104ED800318031803F000400040000000000000021
:104EE800000018002400240018C007801E0031802C
:104EF80002400240018000000000000000000000A5
:104F0800000000000F001800180018000C001D8099
:104F1800370033001D800000000000000000000082
:104F28000000000007000700020002000200000065
:104F38000000000000000000000000000000000069
:104F480000000300030006000E000C000C000C001B
:104F58000C000E0006000300030000000000000023
:104F68000000180018000C000600060006000600E5
:104F7800060006000C001C001800000000000000DD
:104F88000000060006003FC03FC00F001F801980C8
:104F98000000000000000000000000000000000009
:104FA8000000000000000400040004003F8004002A
:104FB80004000400000000000000000000000000E1
:104FC80000000000000000000000000000000000D9
:104FD8000000060004000C000800080000000000A3
:104FE8000000000000000000000000003F800000FA
:104FF80000000000000000000000000000000000A9
:105008000000000000000000000000000000000098
:1050180000000C000C000000000000000000000070
:1050280000C000C0018001800300030006000C00DE
:105038000C001800180030003000000000000000CC
:1050480000000E001B0031803180318031803180BA
:1050580031801B000E00000000000000000000006E
:10506800000006003E0006000600060006000600D6
:10507800060006003FC0000000000000000000001D
:1050880000000F00198031803180030006000C00F9
:10509800180030003F800000000000000000000001
:1050A80000003F006180018003001F000380018031
:1050B800018061803F000000000000000000000047
:1050C8000000070007000F000B001B00130033004F
:1050D8003F8003000F800000000000000000000077
:1050E80000001F801800180018001F0011800180A0
:1050F800018021801F000000000000000000000067
:10510800000007801C00180030003700398031800B
:10511800318019800F00000000000000000000002E
:1051280000007F004300030006000600060006009A
:105138000C000C000C000000000000000000000043
:1051480000001F003180318031801F0031803180A4
:10515800318031801F0000000000000000000000C6
:1051680000001E0033003180318033801D800180B3
:10517800030007003C0000000000000000000000E1
:1051880000000000000000000C000C0000000000FF
:1051980000000C000C0000000000000000000000EF
:1051A80000000000000000000300030000000000F1
:1051B80000000600040008000800000000000000CD
:1051C8000000000000C00300040018006000180080
:1051D8000400030000C00000000000000000000000
:1051E800000000000000000000007FC000007FC039
:1051F80000000000000000000000000000000000A7
:1052080000000000600018000400030000C0030054
:10521800040018006000000000000000000000000A
:10522800000000001F0031803180018007000C0061
:105238000C0000000C00000000000000000000004E
:1052480000000E001100210021002700290029007C
:105258002700200011000E000000000000000000E0
:10526800000000003F000F000900198019801F800E
:1052780030C030C079E000000000000000000000ED
:10528800000000007F003180318031803F00318094
:10529800318031807F000000000000000000000025
:1052A800000000001F4030C06040600060006000E7
:1052B800604030801F000000000000000000000077
:1052C800000000007F00318030C030C030C030C0E6
:1052D80030C031807F0000000000000000000000A6
:1052E800000000007F803080308032003E003200B5
:1052F800308030807F800000000000000000000047
:10530800000000007FC03040304032003E003200D4
:10531800300030007C0000000000000000000000A9
:10532800000000001E80318060806000600067C05F
:10533800618031801F0000000000000000000000B4
:10534800000000007BC03180318031803F80318097
:10535800318031807BC000000000000000000000A8
:10536800000000003FC00600060006000600060018
:10537800060006003FC0000000000000000000001A
:10538800000000001FC003000300030003006300C7
:10539800630063003E000000000000000000000001
:1053A800000000007BC03180330036003C003E0026
:1053B8003300318079C000000000000000000000C8
:1053C800000000007E00180018001800180018409F
:1053D800184018407FC000000000000000000000D6
:1053E80000000000E0E060C071C07BC06AC06EC011
:1053F80064C060C0FBE00000000000000000000086
:105408000000000073C0318039803D8035803780CE
:105418003380318079800000000000000000000027
:10542800000000001F00318060C060C060C060C024
:1054380060C031801F000000000000000000000074
:10544800000000007F0031803180318031803F00D2
:10545800300030007E000000000000000000000066
:10546800000000001F00318060C060C060C060C0E4
:1054780060C031801F000CC01F80000000000000C9
:10548800000000007F003180318031803E00330011
:10549800318031807CE00000000000000000000046
:1054A800000000001F803180318038001F00038019
:1054B800318031803F000000000000000000000043
:1054C800000000007F804C804C804C800C000C0059
:1054D8000C000C003F00000000000000000000006D
:1054E800000000007BC03180318031803180318004
:1054F800318031801F000000000000000000000023
:10550800000000007BC0318031801B001B001B00A5
:105518000A000E000E00000000000000000000005D
:1055280000000000FBE060C064C06EC06EC02A804E
:105538003B803B803180000000000000000000003C
:10554800000000007BC031801B000E000E000E0022
:105558001B0031807BC0000000000000000000003C
:105568000000000079E030C019800F000600060036
:10557800060006001F800000000000000000000078
:10558800000000003F8021802300060004000C007A
:10559800188030803F8000000000000000000000FC
:1055A8000000078006000600060006000600060048
:1055B8000600060006000600078000000000000044
:1055C80030003000180018000C000C000600030022
:1055D80003000180018000C000C00000000000003E
:1055E80000001E0006000600060006000600060071
:1055F80006000600060006001E000000000000006D
:1056080004000A000A001100208020800000000029
:105618000000000000000000000000000000000082
:105628000000000000000000000000000000000072
:105638000000000000000000000000000000FFE083
:105648000800040002000000000000000000000044
:105658000000000000000000000000000000000042
:1056680000000000000000001F00018001801F8072
:10567800318033801DC000000000000000000000E1
:1056880000007000300030003700398030C030C072
:1056980030C03980770000000000000000000000E2
:1056A80000000000000000001E8031806080600063
:1056B800608031801F000000000000000000000032
:1056C80000000380018001801D803380618061803B
:1056D800618033801DC00000000000000000000051
:1056E80000000000000000001F00318060C07FC083
:1056F800600030C01F8000000000000000000000B3
:10570800000007E00C000C003F800C000C000C00AF
:105718000C000C003F8000000000000000000000AA
:1057280000000000000000001DC03380618061801F
:10573800618033801D80018001801F00000000000F
:10574800000070003000300037003980318031802F
:10575800318031807BC000000000000000000000A4
:1057680000000600060000001E00060006000600F5
:10577800060006003FC00000000000000000000016
:1057880000000600060000003F00030003000300BD
:10579800030003000300030003003E0000000000B4
:1057A8000000700030003000378036003C003C00BC
:1057B8003600330077C00000000000000000000041
:1057C80000001E000600060006000600060006008F
:1057D800060006003FC000000000000000000000B6
:1057E80000000000000000007F8036C036C036C0D0
:1057F80036C036C076E0000000000000000000005F
:1058080000000000000000007700398031803180FE
:10581800318031807BC000000000000000000000E3
:1058280000000000000000001F00318060C060C060
:1058380060C031801F000000000000000000000070
:1058480000000000000000007700398030C030C040
:1058580030C039803700300030007C000000000084
:1058680000000000000000001DC0338061806180DE
:10587800618033801D800180018007C00000000026
:1058880000000000000000007B801CC01800180009
:10589800180018007F000000000000000000000051
:1058A80000000000000000001F8031803C001F0045
:1058B800038031803F00000000000000000000006D
:1058C80000001800180018007F00180018001800C1
:1058D800180018800F000000000000000000000001
:1058E80000000000000000007380318031803180AA
:1058F800318033801DC0000000000000000000005F
:1059080000000000000000007BC0318031801B00D7
:105918001B000E000E000000000000000000000048
:105928000000000000000000F1E060C064C06EC02C
:105938003B803B8031800000000000000000000038
:1059480000000000000000007BC01B000E000E00DD
:105958000E001B007BC000000000000000000000DB
:10596800000000000000000079E030C019801980B4
:105978000B000F00060006000C003E0000000000AF
:1059880000000000000000003F80218003000E009E
:10599800180030803F800000000000000000000078
:1059A800000006000C000C000C000C000C00180095
:1059B8000C000C000C000C000600000000000000A9
:1059C80000000600060006000600060006000600A5
:1059D80006000600060006000600000000000000A1
:1059E80000000C0006000600060006000600030082
:1059F80006000600060006000C000000000000007B
:105A080000000000000000000000180024800300CF
:105A1800000000000000000000000000000000007E
:105A280000000000000000002020202000200000CE
:105A380050500000000000002850F850F850A00016
:105A48002030603010602000202018601010000006
:105A5800003820605078000020202000000000005E
:105A6800102020202020100040202020202040004E
:105A78002070205000000000002020F820200000A6
:105A8800000000001020200000000070000000004E
:105A9800000000000020000010202020404080006E
:105AA80020505050502000006020202020F8000096
:105AB800205020204070000020501020106000006E
:105AC80010305078103800007040601050200000EE
:105AD80030406050506000007050102020200000BE
